:020000020000FC
:02000000FFC03F
:100200000FEF00933D000FE300933E005ED069D0F6
:10021000A0E0B0E2C0E0D0E20091A80603FF28C051
:1002200000910806009344061091A80612FDF4CF31
:1002300003E10093260800E00093270807E00093FD
:10024000000810910C0810FFFCCF10E0109300087C
:1002500011E010930C0810E0109326081093270863
:100260001091A80612FFFCCF009108060D93D4CF81
:10027000C0E0D0E20991009344061091A80612FF55
:10028000CBCF0A2F1C2F011709F005C00B2F1D2FF4
:10029000011771F300C005E00093260800E0009309
:1002A000270807E00093000800E00093200800936F
:1002B000210809910093440610910C0810FFF9CF12
:1002C00011E010930C08D9CFFFCF0F930FEF0093DD
:1002D00041060FEF009302060FEF0093A2060F9165
:1002E00008950F9300E000932008009321080093E5
:1002F00026080093270800E00093010811E01093FE
:060300000C080F910895A6
:00000001FF
